:020000040800F2
:1000000000060020F50000081D0100081F0100087F
:10001000210100082301000825010008000000005C
:1000200000000000000000000000000027010008A0
:1000300029010008000000002B0100082D01000824
:100040002F0100082F0100082F0100082F010008D0
:100050002F0100082F0100082F0100082F010008C0
:100060002F0100082F0100082F0100082F010008B0
:100070002F0100082F0100082F0100082F010008A0
:100080002F0100082F0100082F0100082F01000890
:100090002F0100082F0100082F0100082F01000880
:1000A0002F0100082F0100082F0100082F01000870
:1000B0002F0100082F0100082F0100082F01000860
:1000C0002F0100082F0100082F0100082F01000850
:1000D0002F0100082F0100082F0100082F01000840
:1000E0002F0100082F0100082F0100082F01000830
:1000F0002F01000811481249124B99423CBF50F899
:10010000042B41F8042BF8D30F494FF000028B4227
:1001100038BF43F8042BFAD30C480047FEE7FEE74C
:10012000FEE7FEE7FEE7FEE7FEE7FEE7FEE7FEE7A7
:1001300007480849084A094B704700004002000878
:1001400000000020000000200006002061010008DF
:100150000000002000060020000200200002002015
:10016000344FF96941F00101F961324FF96941F009
:100170000201F961304F396821F4405141F4805156
:100180003960396821F4404141F48041396079682F
:1001900021F040017960796821F080017960B968C7
:1001A00021F4405141F48051B960B96821F44041D3
:1001B00041F48041B960F96821F4405141F00001F7
:1001C000F960F96821F4404141F00001F9601B4FEA
:1001D000396821F003013960796821F00101796003
:1001E000B96821F0030141F00101B960F96821F01B
:1001F0000301F960104F796921F040017961796953
:1002000041F0800179610D4F396911F00102002A36
:10021000F9D0396911F00102012AFAD0064F7A6942
:1002200082F040027A61044F7A6982F080027A613A
:10023000E9E7FEE700380240000402400000024007
:04000005080001618D
:00000001FF
